:1000000004C100002FC100002DC100002BC1000061
:1000100029C1000027C1000025C1000023C1000044
:1000200021C100001FC100001DC100001BC1000054
:1000300019C1000017C1000015C1000013C1000064
:1000400011C100000FC100000DC100000BC1000074
:1000500009C1000007C1000005C100000C94720C2A
:1000600001C100000C94940E0C94E40FFBC000003E
:10007000F9C00000F7C00000F5C00000F3C00000A8
:10008000F1C00000EFC00000EDC00000EBC00000B8
:100090000C94D40E0C942310E5C00000E3C00000C3
:1000A000E1C00000DFC00000DDC00000DBC00000D8
:1000B000D9C00000D7C00000D5C00000D3C00000E8
:1000C000D1C00000CFC00000CDC000000C94140FC0
:1000D0000C946210C7C000000C94540F0C94A11033
:1000E000C1C0000000002100240027002A002D00CC
:1000F0003000330001010000040107010A01000083
:100100002200250028002B002E00310034000201BF
:100110000000050108010B0100002000230026005B
:1001200029002C002F00320000010000030106010D
:10013000090105050505070508080808020202026D
:100140000A0A080804040404010101010101010173
:100150000303030303030303040707070C0C0C0C3E
:100160000C0C0C0C02020202060606060606060627
:100170000B0B0B0B0B0B0B0B0102102020080810B4
:100180002040102040800201020108040201010207
:1001900004081020408080402010080402018004E0
:1001A000020180402010080402010804020101023B
:1001B0000408102040800102040810204080000044
:1001C000090A02080B0C0D070603040100000000D9
:1001D000000000000000000000000000000000001F
:1001E0000000000000000000000011100F000000DF
:1001F00000000000000000000000000000000000FF
:10020000000000007A011112750111241FBECFEF0A
:10021000D1E2DEBFCDBF00E00CBF13E0A0E0B2E052
:10022000E8EAFFE200E00BBF02C007900D92AC309D
:10023000B107D9F71BBE16E0ACE0B3E001C01D92D8
:10024000A032B107E1F712E0C8E0D2E004C0229783
:10025000FE010E94C417C430D107C9F70E94481399
:100260000C94C817CDCEFB01DC0102C001900D92A9
:1002700041505040D8F70895FB01DC018D91019069
:1002800080190110D9F3990B0895FB01DC0101904D
:100290000D920020E1F70895CF92EF920F938130F5
:1002A0009105B1F46F5F7F4FE1F48CE093E06CE077
:1002B0004BE02AE009E058E0E52E37E0C32E0E942B
:1002C0003A0C81E293E060E072E00E94151509C0EB
:1002D000892B39F46F5F7F4F21F481E293E00E9414
:1002E00044150F91EF90CF90089580E090E06FEF6C
:1002F0007FEFD2CF81E090E06FEF7FEFCDCF0F9314
:100300001F93CF93DF938C01C0E0D0E068EE73E0E1
:1003100080E090E00E94BA0C21960C171D07B4F7FC
:10032000DF91CF911F910F910895AF92BF92CF921D
:10033000DF92EF92FF920F931F937C01B62EA42EB3
:100340006CE0C62E63E0D62EC60160E040E00E945D
:10035000690BC60161E072E00E944D148B2D61E0D3
:100360000E94320E8A2D60E00E94320E68EE73E029
:1003700080E090E00E94BA0C8B2D60E00E94320E6B
:100380008A2D60E00E94320EC60160E040E00E94CB
:10039000690BC6016AE072E00E944D140027F7FC69
:1003A0000095102FC801B7010E94BA0CC60160E089
:1003B00040E00E94690BC60163E172E00E944D14A7
:1003C0008B2D60E00E94320E8A2D61E00E94320E79
:1003D00068EE73E080E090E00E94BA0C8B2D60E044
:1003E0000E94320E8A2D60E00E94320E1F910F9102
:1003F000FF90EF90DF90CF90BF90AF900895CF9394
:10040000DF93EC0116C06AE070E080E090E00E94AB
:10041000BA0C84E995E00E946611181619064CF48E
:1004200084E995E00E949811682F81E293E00E9490
:10043000D21484E995E00E946611892B21F78091FE
:10044000250390912603892B69F181E293E06CE109
:1004500072E00E944F14882319F081E090E020C0E0
:1004600081E293E06EE172E00E944F14882319F05C
:1004700082E090E015C081E293E060E272E00E94C9
:100480004F14882319F083E090E00AC081E293E0E2
:1004900062E272E00E944F14882321F084E090E031
:1004A00099838883DF91CF910895CF92DF92EF9265
:1004B000FF920F931F93CF93DF93EB017A016901B2
:1004C0000E94640EF70191838083892B61F4F60109
:1004D00080819181019739F4F80180819181C81B55
:1004E000D90BD183C083F70180819181F60191837B
:1004F000808364E170E080E090E00E94BA0CDF91BC
:10050000CF911F910F91FF90EF90DF90CF900895C2
:10051000EF92FF920F931F93CF93DF9387E190E0C9
:1005200061E070E047E253E029E233E00BE213E0E0
:10053000BCDF8BE493E063DF80914B0390914C032D
:10054000049781F481E090E090932C0380932B0337
:1005500010924C0310924B0381E293E060E072E052
:100560000E942D1580912B0390912C03019709F087
:1005700084C78CE093E00E94970B8BE260E00E94BE
:10058000320E8DE260E00E94320E87E190E061E081
:1005900070E047E253E029E233E00BE213E085DF4D
:1005A0008BE493E02CDF80914B0390914C030497F4
:1005B00071F410922C0310922B0310924C031092A2
:1005C0004B0381E293E060E072E00E942D151092EF
:1005D0002E0310922D031092300310922F031092CD
:1005E00032031092310310923403109233038FEFD1
:1005F0009FEF9093E3028093E20210924E031092D9
:100600004D031092500310924F0310925203109218
:10061000510310925403109253038091430390911D
:100620004403892B49F120914703309148038CE31F
:1006300090E0A901489F9001499F300D589F300DCF
:100640001124409145035091460380E19EE0BC0196
:10065000469FC001479F900D569F900D1124280F73
:10066000391F88EE93E0AC01249FC001259F900DB7
:10067000349F900D112402C080E69AEE90934403BB
:10068000809343038091E0029091E10282309105D2
:1006900069F48CE291E090934A038093490383E2EA
:1006A00061E00E94320E85E260E00FC08330910568
:1006B00089F488EE93E090934A038093490383E2A0
:1006C00060E00E94320E85E261E00E94320E87E215
:1006D00060E012C0049791F488EB9BE090934A038A
:1006E0008093490383E260E00E94320E85E260E07D
:1006F0000E94320E87E261E00E94320E8CE093E0AD
:1007000060E040E0E6D78CE093E064E272E00E94B3
:100710004D148CE093E060E041E0DBD78CE093E0A7
:1007200066E372E00E944D1489E10E94640E90938A
:100730003603809335038BE10E94640E9093380357
:10074000809337038FE10E94640E90933C03809363
:100750003B0385E593E053DE80915503909156036A
:100760008130910509F0CCC0909336038093350316
:10077000C7C089E190E062E070E047E253E029E21F
:1007800033E00DE213E091DE809155039091560322
:10079000019731F482E090E090932E0380932D0333
:1007A00080912D0390912E03029709F0AEC08CE04A
:1007B00093E0BDD710924E0310924D0381E293E077
:1007C00060E072E00E942D158CE093E060E040E074
:1007D00080D78CE093E067E472E00E944D148CE0D7
:1007E00093E060E041E075D78CE093E06CE472E068
:1007F0000E944D1489E190E062E070E047E253E02E
:1008000029E233E00DE213E050DE80912D03909158
:100810002E03892B29F4D093E502C093E40225C06E
:100820008DE493E0ECDD00914D0310914E03013017
:10083000110579F410922E0310922D0381E293E0BA
:1008400060E072E00E942D151093E5020093E4022F
:100850000CC08091690390916A03019690936A039A
:1008600080936903883C91052CF210926A031092E0
:1008700069038091E4029091E502019729F4F092D6
:10088000E502E092E40231C0809143039091440379
:1008900068EE73E00E947917CB0131DD8CE093E0C4
:1008A00046D78CE093E060E041E013D768EE73E058
:1008B00080E090E00E94BA0C8CE093E068E572E082
:1008C0000E944D148091490390914A036BE270E0BD
:1008D0004DE250E02ADD8CE093E029D780912D0392
:1008E00090912E03029709F46FCF80912D03909180
:1008F0002E03892B51F410925603109255030CC00D
:10090000EE24EA94FE2CC1E0D0E080913503909172
:100910003603019709F42DCF87E593E070DD8091D0
:10092000570390915803029709F03BC581E090E08E
:10093000909338038093370381E293E060E072E0A4
:100940000E942D152EC58BE190E063E070E047E238
:1009500053E029E233E00FE213E0A7DD8091570373
:1009600090915803029781F483E090E090933003D4
:1009700080932F03109258031092570381E293E063
:1009800060E072E00E942D1510925E0310925D03EC
:1009900010925C0310925B0380912F0390913003BF
:1009A000039709F0FEC48CE093E0C1D66AE070E0E2
:1009B00080E090E0DFD78BE10E94640E90933803D3
:1009C000809337038091570390915803892B09F046
:1009D000E1C41092380310923703DCC48FE190E039
:1009E00064E070E047E253E029E233E001E313E022
:1009F0005CDD87E693E003DD8091670390916803F7
:100A0000039781F484E090E0909332038093310364
:100A100081E293E060E072E00E942D15109268037D
:100A2000109267038CE093E060E040E052D68CE0E7
:100A300093E065E672E00E944D148CE093E060E084
:100A400041E047D68CE093E069E772E00E944D14E4
:100A500089E10E94640E90933E0380933D038BE1F5
:100A60000E94640E9093400380933F038BE593E0D4
:100A7000C6DC80915B0390915C038130910509F0A5
:100A800019C290933E0380933D0381E293E060E0BE
:100A900072E00E942D150EC289E190E062E070E0E4
:100AA00047E253E029E233E00DE213E0FEDC8091FF
:100AB0005B0390915C03019751F482E090E0909386
:100AC0002E0380932D0310925C0310925B038091A0
:100AD0002D0390912E03029709F0EFC18CE093E073
:100AE00026D689E10E94640E9093360380933503E5
:100AF0006AE070E080E090E03DD785E593E07FDC40
:100B00008091550390915603019709F060C11092AE
:100B100036031092350381E293E060E072E00E94B8
:100B20002D15109256031092550351C18CE093E09D
:100B300060E040E0CED58CE093E06DE872E00E948A
:100B40004D148CE093E060E041E0C3D58CE093E08D
:100B50006CE972E00E944D1489E10E94640E90934A
:100B60003E0380933D038BE10E94640E909340030B
:100B700080933F038FE10E94640E90934203809321
:100B800041038091E2029091E3028F5F9F4F09F051
:100B900027C18BE593E033DC80915B0390915C038C
:100BA0008130910509F050C090933E0380933D033E
:100BB00081E293E060E072E00E942D1545C089E17A
:100BC00090E062E070E047E253E029E233E00DE2BA
:100BD00013E06BDC80915B0390915C03019771F4EF
:100BE00082E090E090932E0380932D03F0923203E5
:100BF000E092310310925C0310925B0380912D030D
:100C000090912E0382309105F9F49093E102809344
:100C1000E002D093E302C093E2028CE093E087D538
:100C20008CE093E060E040E054D58CE093E066EA2D
:100C300072E00E944D1460E273E080E090E09AD68A
:100C40008CE093E074D507C080913D0390913E0302
:100C5000019709F4B4CF8DE593E0D1DB80915D037A
:100C600090915E03029709F050C0D0934003C09367
:100C70003F0381E293E060E072E00E942D1545C0E1
:100C80008BE190E063E070E047E253E029E233E07B
:100C90000FE213E00ADC80915D0390915E030297FE
:100CA00071F483E090E09093300380932F03F092EF
:100CB0003203E092310310925E0310925D03809143
:100CC0002F039091300383309105F9F49093E10262
:100CD0008093E002D093E302C093E2028CE093E0C1
:100CE00026D58CE093E060E040E0F3D48CE093E024
:100CF00066EA72E00E944D1460E273E080E090E0EA
:100D000039D68CE093E013D507C080913F039091D2
:100D10004003019709F4B4CF8FE593E070DB809135
:100D20005F0390916003039709F04AC0D093420398
:100D3000C093410381E293E060E072E00E942D15D0
:100D40003FC08FE190E064E070E047E253E029E2C9
:100D500033E001E313E0A9DB80915F03909160032E
:100D6000039741F4F0923203E09231031092600352
:100D700010925F038091310390913203843091058A
:100D8000F9F49093E1028093E002D093E302C093E0
:100D9000E2028CE093E0CBD48CE093E060E040E0B2
:100DA00098D48CE093E066EA72E00E944D1460E211
:100DB00073E080E090E0DED58CE093E0B8D409C029
:100DC0008091410390914203019719F4BACFC1E099
:100DD000D0E08091350390913603892B09F4A6CE9B
:100DE00089E172D7909336038093350385E593E0CC
:100DF00006DB8091550390915603019771F4109290
:100E000036031092350381E293E060E072E00E94C5
:100E10002D1510925603109255038BE155D79093E0
:100E200038038093370387E593E0E9DA809157032D
:100E300090915803029771F410923803109237037F
:100E400081E293E060E072E00E942D151092580359
:100E5000109257038FE138D790933A038093390368
:100E600081E693E0CCDA809161039091620303976D
:100E700071F410923A031092390381E293E060E03A
:100E800072E00E942D15109262031092610380910E
:100E9000350390913603892BB9F0809137039091F7
:100EA0003803892B89F08091390390913A03892B7B
:100EB00021F40AC074E0E72EF12C80913D0390915B
:100EC0003E03019709F4E8CD8DE593E098DA80912F
:100ED0005D0390915E03029709F04FC281E090E0BC
:100EE0009093400380933F0364E670E080E090E0DD
:100EF00041D581E293E060E072E00E942D153DC291
:100F00008BE190E063E070E047E253E029E233E0F8
:100F10000FE213E0CADA80915D0390915E030297BD
:100F200051F483E090E09093300380932F0310926C
:100F30005E0310925D0380912F039091300303971D
:100F400009F01BC28CE093E0F2D3109230031092B0
:100F50002F031092500310924F0389E1B5D690935E
:100F600036038093350381E293E060E072E00E94F3
:100F70002D15C1E0D0E0BDC18CE093E060E040E021
:100F8000A8D38CE093E067EB72E00E944D148CE0F4
:100F900093E060E041E09DD38CE093E061EC72E08F
:100FA0000E944D148CE093E06DE041E092D38CE020
:100FB00093E06AEC72E00E944D1489E185D690932B
:100FC0003E0380933D038BE17FD690934003809353
:100FD0003F038FE179D690934203809341038BE5E1
:100FE00093E00DDA8DE593E00ADA80915B0390914E
:100FF0005C038130910549F490933E0380933D0357
:101000001092400310923F030FC080915D039091B6
:101010005E03029709F0ACC0D0934003C0933F0336
:1010200010923E0310923D0381E293E060E072E093
:101030000E942D159DC08BE147D69093400380936D
:101040003F038DE593E0DBD980915D0390915E03D2
:10105000029751F41093400300933F0381E293E021
:1010600060E072E00E942D158FE12ED6909342032E
:10107000809341038FE593E0C2D980915F03909103
:101080006003039771F4D0934203C093410381E25C
:1010900093E060E072E00E942D15109260031092C0
:1010A0005F0389E190E062E070E047E253E029E20B
:1010B00033E00DE213E0F9D983E693E0A0D9809103
:1010C000630390916403019781F482E090E0909330
:1010D0002E0380932D0381E293E060E072E00E9492
:1010E0002D15109264031092630380912D0390914B
:1010F0002E03029789F510922E0310922D03109261
:101100004E0310924D038091450390914603019642
:10111000909346038093450348977CF010924603D2
:10112000109245038CE093E069E040E0D2D28CE07D
:1011300093E063ED72E00E944D148CE093E069E06F
:1011400040E0C7D260914503709146038CE093E084
:101150004AE050E00E943B14809141039091420389
:101160008130910529F49093E3028093E202AEC0AE
:1011700000913D0310913E030130110509F0A6C016
:1011800080913F0390914003892B09F454CF9EC076
:1011900089E19AD590933E0380933D038BE593E0DC
:1011A0002ED980915B0390915C038130910551F4BD
:1011B00090933E0380933D0381E293E060E072E010
:1011C0000E942D158FE180D59093420380934103B7
:1011D0008FE593E014D980915F03909160030397AA
:1011E00071F4D0934203C093410381E293E060E045
:1011F00072E00E942D151092600310925F038BE144
:1012000090E063E070E047E253E029E233E00FE270
:1012100013E04BD985E693E0F2D880916503909175
:101220006603029781F483E090E09093300380930B
:101230002F0381E293E060E072E00E942D1510928E
:1012400066031092650380912F03909130030397FA
:1012500089F51092300310922F03109250031092D0
:101260004F03809147039091480301969093480360
:1012700080934703CC977CF0109248031092470369
:101280008CE093E069E041E024D28CE093E063EDF0
:1012900072E00E944D148CE093E069E041E019D2C5
:1012A00060914703709148038CE093E04AE050E07E
:1012B0000E943B148091410390914203813091053B
:1012C00029F49093E3028093E2020DC080913D03E4
:1012D00090913E03892B39F480913F039091400314
:1012E000019709F455CF8091E2029091E3020197B2
:1012F00039F08091350390913603892B09F43CCE67
:101300008BE1E2D4909338038093370387E593E031
:1013100076D88091570390915803029771F41092F8
:1013200038031092370381E293E060E072E00E949C
:101330002D15109258031092570380913703909106
:101340003803892BD1F48CE093E0F1D18CE093E069
:1013500060E040E0BED18CE093E066EA72E00E947B
:101360004D1468EC70E080E090E004D384E090E0FD
:10137000909332038093310307C080913F03909193
:101380004003019709F4BCCD809131039091320361
:10139000049739F08091370390913803892B09F431
:1013A0001DCB8091370390913803019709F4CBCA84
:1013B00089E593E024D88091590390915A030397CB
:1013C00009F04CC081E090E090933C0380933B0394
:1013D00045C08FE190E064E070E047E253E029E22D
:1013E00033E001E313E061D88091590390915A03EF
:1013F000039731F484E090E09093320380933103BB
:101400008091310390913203049741F58CE093E091
:101410008ED18CE093E060E041E05BD18CE093E022
:1014200068E572E00E944D148091490390914A034F
:101430006BE270E04DE250E00E9495016AE070E0DE
:1014400080E090E097D210925A031092590381E203
:1014500093E060E072E00E942D1507C080913B038D
:1014600090913C03019709F4B4CF80912B039091A4
:101470002C03019709F489C843C08CE093E057D14D
:1014800087E190E061E070E047E253E029E233E079
:101490000BE213E00AD88BE493E00E94FF018091F5
:1014A0004B0390914C03049781F481E090E090937A
:1014B0002C0380932B0310924C0310924B0381E278
:1014C00093E060E072E00E942D158CE093E060E014
:1014D00040E0FFD08CE093E068ED72E00E944D1494
:1014E00083E260E0BFD385E260E0BCD387E260E0E6
:1014F000B9D380912B0390912C03892B09F4C0CF91
:10150000DF91CF911F910F91FF90EF90089584E9A3
:1015100095E040E855E260E070E052D68CE093E060
:1015200060E142E020E008D187E160E0E8D289E1B3
:1015300060E0E5D28BE160E0E2D28DE160E0DFD2F5
:101540008FE160E0DCD281E260E0D9D283E261E049
:10155000D6D285E261E0D3D287E261E0D0D28BE2DD
:1015600061E0CDD28DE261E0CAC20F931F938C017E
:10157000FC01868160E076D381E090E054D2F801EE
:10158000868161E06FD381E090E04DD2F8018681E1
:1015900060E068D384E690E046D21F910F910895F1
:1015A000CF92DF92EF92FF920F931F93CF93DF932F
:1015B000D82EC92E282F392FC9018C01C0E0D0E0C8
:1015C000E62EFF24F801878161E099D2B7010C2E45
:1015D00002C0759567950A94E2F76170F8018781FA
:1015E00041D321960F5F1F4FC830D10559F78D2D7C
:1015F0009C2DBBDFDF91CF911F910F91FF90EF905A
:10160000DF90CF900895CF92DF92EF92FF920F93E9
:101610001F93CF93DF93D82EC92E282F392FC901BE
:101620008C01C0E0D0E0E62EFF24F801878161E064
:1016300066D2B7010C2E02C0759567950A94E2F741
:101640006170F80187810ED321960F5F1F4FC43060
:10165000D10559F78D2D9C2D88DFDF91CF911F91FA
:101660000F91FF90EF90DF90CF9008951F93CF934D
:10167000DF93EC01162F8C81642FF4D28D818F3F84
:1016800011F060E0EFD28F8584FF04C0CE01612F9E
:1016900087DF0CC0612F70E084E0759567958A95AF
:1016A000E1F7CE01B0DFCE01612FADDFDF91CF9149
:1016B0001F91089541E0DADF81E090E0089540E075
:1016C000D5CFFC016089862F8460808B6C60CF0150
:1016D000F6CFDF93CF93CDB7DEB728970FB6F89448
:1016E000DEBF0FBECDBF9C01FE013196A4EFB2E07C
:1016F00088E00D9001928150E1F7F9018389481744
:1017000010F0482F4150E42FF0E0EE0FFF1FEC0FD8
:10171000FD1F8181680F6068C901D1DF28960FB66F
:10172000F894DEBF0FBECDBFCF91DF91089561E089
:10173000C6DF80ED97E077C1CF93DF93EC014230B5
:1017400018F08F8588608F874B8B1C8A222329F0A5
:10175000413019F48F8584608F8780E593EC63D1E5
:101760008C8160E07FD28E8160E07CD28D818F3F62
:1017700011F060E077D26F8564FD16C0CE0163E0A2
:1017800042DF84E991E14FD1CE0163E03CDF84E99F
:1017900091E149D1CE0163E036DF86E990E043D1A3
:1017A000CE0162E030DF11C06062CE0188DF84E9E3
:1017B00091E139D16F856062CE0181DF86E990E0E9
:1017C00032D16F856062CE017ADF6F856062CE01B3
:1017D00076DF84E0888BCE0174DFCE01A8DF82E063
:1017E000898BCE0166E06BDFDF91CF9108956F9218
:1017F0007F928F92AF92CF92EF920F931F93DF93CE
:10180000CF93CDB7DEB73C01162F842FF30144836D
:1018100025830683E782C086A18682869E8593877C
:101820009F859487988995879989968761E067D184
:10183000F30185818F3F11F061E061D1F301868171
:1018400061E05DD1112319F0F301178603C080E137
:10185000F3018787C30160E141E020E06DDFCF91B4
:10186000DF911F910F91EF90CF90AF908F907F906D
:101870006F9008958F92AF92CF92EF920F931F9334
:10188000CF93DF93DC01362F542F722F102FAE2C05
:101890008C2C13961C921E92129780EF92E0119658
:1018A0009C938E9300D00F92EDB7FEB73196CDB7D3
:1018B000DEB71982118212821382CD0161E0432FBB
:1018C0002FEF052FE72EC12E92DF0F900F900F9074
:1018D0000F90DF91CF911F910F91EF90CF90AF902C
:1018E0008F9008951F920F920FB60F9211242F938D
:1018F0003F938F939F93AF93BF9380916F0390918A
:101900007003A0917103B09172033091730301963B
:10191000A11DB11D232F2D5F2D3720F02D570196CE
:10192000A11DB11D2093730380936F0390937003E7
:10193000A0937103B093720380916B0390916C0339
:10194000A0916D03B0916E030196A11DB11D80930E
:101950006B0390936C03A0936D03B0936E03BF91E0
:10196000AF919F918F913F912F910F900FBE0F904C
:101970001F9018959B01AC017FB7F89480916B0381
:1019800090916C03A0916D03B0916E0366B5A89B16
:1019900005C06F3F19F00196A11DB11D7FBFBA2F81
:1019A000A92F982F8827860F911DA11DB11D62E0D8
:1019B000880F991FAA1FBB1F6A95D1F7BC012DC0C4
:1019C000FFB7F89480916B0390916C03A0916D0325
:1019D000B0916E03E6B5A89B05C0EF3F19F00196E4
:1019E000A11DB11DFFBFBA2FA92F982F88278E0FD9
:1019F000911DA11DB11DE2E0880F991FAA1FBB1FF9
:101A0000EA95D1F7861B970B885E9340C8F2215068
:101A100030404040504068517C4F21153105410510
:101A2000510571F60895019739F0880F991F880FB5
:101A3000991F02970197F1F70895789484B5826011
:101A400084BD84B5816084BD85B5826085BD85B562
:101A5000816085BDEEE6F0E0808181608083E1E811
:101A6000F0E0108280818260808380818160808349
:101A7000E0E8F0E0808181608083E1EBF0E080814C
:101A800084608083E0EBF0E0808181608083E1E925
:101A9000F0E0808182608083808181608083E0E9E2
:101AA000F0E0808181608083E1EAF0E08081826003
:101AB0008083808181608083E0EAF0E080818160C2
:101AC0008083E1E2F1E080818260808380818160B7
:101AD0008083E0E2F1E0808181608083EAE7F0E0EA
:101AE0008081846080838081826080838081816046
:101AF00080838081806880831092C1000895CF9395
:101B0000DF93482F50E0CA0188589E4FFC01349162
:101B10004E5C5E4FFA018491882369F190E0880F52
:101B2000991FFC01EC51FF4FA591B491FC01E250CB
:101B3000FF4FC591D491662351F42FB7F8948C913F
:101B4000932F909589238C93888189230BC06230D1
:101B500061F42FB7F8948C91932F909589238C93EF
:101B60008881832B88832FBF06C09FB7F8948C9100
:101B7000832B8C939FBFDF91CF910895893009F417
:101B800049C08A30A0F4843051F1853040F482306D
:101B900079F1833000F5813009F063C026C08730C9
:101BA00079F1883098F5863009F05BC025C08D301A
:101BB00009F442C08E3028F48B30B1F18C30C0F57E
:101BC0002DC0803109F442C0813109F445C08F3005
:101BD00009F047C037C0809180008F7703C08091A3
:101BE00080008F7D80938000089584B58F7702C038
:101BF00084B58F7D84BD08958091B0008F7703C038
:101C00008091B0008F7D8093B00008958091900006
:101C10008F7707C0809190008F7D03C080919000E6
:101C2000877F8093900008958091A0008F7707C0F0
:101C30008091A0008F7D03C08091A000877F80935A
:101C4000A0000895809120018F7703C0809120012A
:101C50008F7D80932001089580912001877F80935C
:101C600020010895FF920F931F93F62E482F50E006
:101C7000CA0182549E4FFC012491CA0188589E4F8C
:101C8000FC0114914E5C5E4FFA0104910023C1F0F7
:101C9000222311F0822F72DFE02FF0E0EE0FFF1F02
:101CA000E250FF4FA591B4919FB7F894FF2021F423
:101CB0008C911095812302C08C91812B8C939FBFB6
:101CC0001F910F91FF9008950F931F93482F50E09D
:101CD000CA0182549E4FFC012491CA0188589E4F2C
:101CE000FC0104914E5C5E4FFA011491112319F42A
:101CF00020E030E014C0222311F0822F3FDF812F3B
:101D000090E0880F991F885E9E4FFC01A591B491C9
:101D10008C9120E030E0802311F021E030E0C90117
:101D20001F910F91089508951F920F920FB60F9271
:101D30000BB60F9211242F933F934F938F939F9342
:101D4000EF93FF938091C00082FD1DC04091C600BB
:101D50002091B4033091B5032F5F3F4F2F73307044
:101D60008091B6039091B7032817390771F0E0917D
:101D7000B403F091B503EC58FC4F40833093B503A6
:101D80002093B40302C08091C600FF91EF919F9110
:101D90008F914F913F912F910F900BBE0F900FBEDF
:101DA0000F901F90189508951F920F920FB60F92E3
:101DB0000BB60F9211242F933F934F938F939F93C2
:101DC000EF93FF938091C80082FD1DC04091CE002B
:101DD00020913C0430913D042F5F3F4F2F733070B2
:101DE00080913E0490913F042817390771F0E091EB
:101DF0003C04F0913D04E450FC4F408330933D049B
:101E000020933C0402C08091CE00FF91EF919F91FE
:101E10008F914F913F912F910F900BBE0F900FBE5E
:101E20000F901F90189508951F920F920FB60F9262
:101E30000BB60F9211242F933F934F938F939F9341
:101E4000EF93FF938091D00082FD1DC04091D6009A
:101E50002091C4043091C5042F5F3F4F2F73307021
:101E60008091C6049091C7042817390771F0E0915A
:101E7000C404F091C504EC57FB4F40833093C50474
:101E80002093C40402C08091D600FF91EF919F91EE
:101E90008F914F913F912F910F900BBE0F900FBEDE
:101EA0000F901F90189508951F920F920FB60F92E2
:101EB0000BB60F9211242F933F934F938F939F93C1
:101EC000EF93FF938091300182FD1DC04091360158
:101ED00020914C0530914D052F5F3F4F2F7330708F
:101EE00080914E0590914F052817390771F0E091C8
:101EF0004C05F0914D05E45FFA4F408330934D055A
:101F000020934C0502C080913601FF91EF919F9183
:101F10008F914F913F912F910F900BBE0F900FBE5D
:101F20000F901F901895E091A005F091A105E05C3D
:101F3000FF4F8191919120813181805C9F4F821B65
:101F4000930B60E470E0D5D7892B09F0ECDEE091CB
:101F5000C205F091C305E05CFF4F81919191208112
:101F60003181805C9F4F821B930B60E470E0C1D78E
:101F7000892B09F018DFE091E405F091E505E05CBC
:101F8000FF4F8191919120813181805C9F4F821B15
:101F9000930B60E470E0ADD7892B09F044DFE0914A
:101FA0000606F0910706E05CFF4F81919191208138
:101FB0003181805C9F4F821B930B60E470E099D766
:101FC000892B09F070CF08951F920F920FB60F92D0
:101FD0000BB60F9211242F933F938F939F93EF9300
:101FE000FF932091F8033091F9038091FA039091C7
:101FF000FB032817390731F48091C1008F7D80934E
:10200000C10014C0E091FA03F091FB03E854FC4FC7
:1020100020818091FA039091FB0301968F73907059
:102020009093FB038093FA032093C600FF91EF91F6
:102030009F918F913F912F910F900BBE0F900FBEEC
:102040000F901F9018951F920F920FB60F920BB61C
:102050000F9211242F933F938F939F93EF93FF93AE
:1020600020918004309181048091820490918304B6
:102070002817390731F48091C9008F7D8093C900FA
:1020800014C0E0918204F0918304E05CFB4F208156
:10209000809182049091830401968F739070909345
:1020A0008304809382042093CE00FF91EF919F914F
:1020B0008F913F912F910F900BBE0F900FBE0F90FD
:1020C0001F9018951F920F920FB60F920BB60F929A
:1020D00011242F933F938F939F93EF93FF9320911E
:1020E00008053091090580910A0590910B05281784
:1020F000390731F48091D1008F7D8093D10014C0D5
:10210000E0910A05F0910B05E853FB4F2081809187
:102110000A0590910B0501968F73907090930B05B3
:1021200080930A052093D600FF91EF919F918F91A4
:102130003F912F910F900BBE0F900FBE0F901F90ED
:1021400018951F920F920FB60F920BB60F92112493
:102150002F933F938F939F93EF93FF93209190053D
:102160003091910580919205909193052817390738
:1021700031F4809131018F7D8093310114C0E09161
:102180009205F0919305E05BFA4F208180919205D2
:102190009091930501968F7390709093930580931F
:1021A000920520933601FF91EF919F918F913F917E
:1021B0002F910F900BBE0F900FBE0F901F90189590
:1021C000AF92BF92DF92EF92FF920F931F93CF9344
:1021D000DF93EC017A018B01DD24403081EE58075A
:1021E00080E0680780E0780711F0DD24D39491E067
:1021F000A92EB12CEC89FD89DD2069F0C50108A06C
:1022000002C0880F991F0A94E2F7808360E079E0AA
:102210008DE390E005C0108260E874E88EE190E004
:10222000A801970179D62150304040405040569542
:1022300047953795279580E12030380720F0DD203D
:1022400011F0DD24D7CFE889F9893083EA89FB8949
:10225000208319A2EE89FF89408121E030E0C90185
:102260000C8C02C0880F991F0A94E2F7482B408318
:10227000EE89FF894081C9010D8C02C0880F991F2A
:102280000A94E2F7482B4083EE89FF894081C90117
:102290000E8C02C0880F991F0A94E2F7482B4083E6
:1022A000EE89FF8980810F8C02C0220F331F0A94B0
:1022B000E2F7209528232083DF91CF911F910F9182
:1022C000FF90EF90DF90BF90AF900895DC011C96D7
:1022D000ED91FC911D97E05CFF4F819191912081E0
:1022E0003181805C9F4F821B930B60E470E001C6DC
:1022F000DC011C96ED91FC911D97E05CFF4F208165
:102300003181E054F040DF01AE5BBF4F8D919C9175
:1023100011972817390719F42FEF3FEF07C08D9158
:102320009C91E80FF91F8081282F30E0C9010895A2
:10233000DC011C96ED91FC911D97E05CFF4F208124
:102340003181E054F040DF01AE5BBF4F8D919C9135
:1023500011972817390719F42FEF3FEF10C08D910F
:102360009C911197E80FF91F20818D919C911197F5
:1023700001968F73907011969C938E9330E0C901F3
:102380000895DC0191968C919197882339F05496A9
:10239000ED91FC915597808186FFF9CF91961C9223
:1023A0000895CF93DF93EC01EE85FF85E05CFF4F4E
:1023B00020813181E054F0402F5F3F4F2F73307008
:1023C000DF01AE5BBF4F8D919C91119728173907A4
:1023D000D1F3E05CFF4F80819181E054F040E80F41
:1023E000F91F6083EE85FF85E05CFF4F318320831A
:1023F000EE89FF89208181E090E00F8C02C0880F78
:10240000991F0A94E2F7282B208381E089A3EC89A5
:10241000FD8980818064808381E090E0DF91CF91AD
:1024200008951F93109297051092960528EE33E0B9
:1024300040E050E0209398053093990540939A0529
:1024400050939B0560E073E070939505609394054D
:1024500084E793E09093A1058093A00588EB93E037
:102460009093A3058093A20585EC90E09093A50539
:102470008093A40584EC90E09093A7058093A60533
:1024800080EC90E09093A9058093A80581EC90E002
:102490009093AB058093AA0582EC90E09093AD05F4
:1024A0008093AC0586EC90E09093AF058093AE05E9
:1024B00014E01093B005B3E0B093B105A7E0A0938A
:1024C000B205F5E0F093B305E1E0E093B4051092B6
:1024D000B9051092B8052093BA053093BB05409317
:1024E000BC055093BD057093B7056093B6058CEF9E
:1024F00093E09093C3058093C20580E494E09093A9
:10250000C5058093C4058DEC90E09093C70580933A
:10251000C6058CEC90E09093C9058093C80588ECC3
:1025200090E09093CB058093CA0589EC90E090935E
:10253000CD058093CC058AEC90E09093CF058093F5
:10254000CE058EEC90E09093D1058093D00510934A
:10255000D205B093D305A093D405F093D505E093AD
:10256000D6051092DB051092DA052093DC05309336
:10257000DD054093DE055093DF057093D905609328
:10258000D80584E894E09093E5058093E40588EC11
:1025900094E09093E7058093E60585ED90E09093B5
:1025A000E9058093E80584ED90E09093EB05809336
:1025B000EA0580ED90E09093ED058093EC0581EDC8
:1025C00090E09093EF058093EE0582ED90E090937C
:1025D000F1058093F00586ED90E09093F3058093EC
:1025E000F2051093F405B093F505A093F605F0936A
:1025F000F705E093F8051092FD051092FC05209375
:10260000FE053093FF05409300065093010670933A
:10261000FB056093FA058CE095E0909307068093A4
:10262000060680E595E0909309068093080685E309
:1026300091E090930B0680930A0684E391E09093D7
:102640000D0680930C0680E391E090930F06809333
:102650000E0681E391E0909311068093100682E3C9
:1026600091E0909313068093120686E391E0909395
:1026700015068093140610931606B0931706A093C0
:102680001806F0931906E0931A061F91089508950D
:10269000CF93DF93D2D9FBDF0E94870AC3E9DFE043
:1026A0000E9488022097E1F33EDCFACFCF92DF92BE
:1026B000EF92FF920F931F93CF93DF937C016B01F7
:1026C0008A01C0E0D0E00FC0D6016D916D01D70145
:1026D000ED91FC910190F081E02DC7011995C80F93
:1026E000D91F015010400115110571F7CE01DF917E
:1026F000CF911F910F91FF90EF90DF90CF900895B1
:10270000CF93DF93EC016115710519F420E030E0FF
:102710000FC0DB010D900020E9F71197A61BB70B46
:10272000E881F9810280F381E02DAD0119959C01CA
:10273000C901DF91CF9108954F925F927F928F925E
:102740009F92AF92BF92CF92DF92EF92FF920F9340
:102750001F93DF93CF93CDB7DEB7A1970FB6F89451
:10276000DEBF0FBECDBF2C01742ECB01223008F48A
:102770002AE019A231E2C32ED12CCC0EDD1E822E0E
:102780009924AA24BB24672D752FA5019401C4D3D5
:1027900079018A01C801B701A50194018BD3472DA6
:1027A000461B0894C108D1084A3014F4405D01C0AA
:1027B000495CF6014083E114F1040105110521F0A3
:1027C0007E2C5F2DC801DFCFC201B60199DFA19633
:1027D0000FB6F894DEBF0FBECDBFCF91DF911F9132
:1027E0000F91FF90EF90DF90CF90BF90AF909F90B0
:1027F0008F907F905F904F900895CF92DF92EF92ED
:10280000FF920F931F93CF93DF93EC016A017B013B
:102810002115310541F4E881F9810190F081E02D25
:10282000642F19951DC02A303105C9F477FF16C0F1
:10283000E881F9810190F081E02D6DE219958C011C
:1028400044275527BA014C195D096E097F09CE014D
:102850002AE072DF9801280F391F03C02AE06CDFDD
:102860009C01C901DF91CF911F910F91FF90EF90D3
:10287000DF90CF900895EF92FF920F931F937B010B
:102880009A010027F7FC0095102FB801A701B5DFCA
:102890001F910F91FF90EF90089532CF0895DC01C2
:1028A000FB0114968D919C911597892B31F461153C
:1028B0007105A9F090E0808108C00D90BC91A02D19
:1028C0006115710529F490E08C91882349F407C0C3
:1028D000CD010E943C019C0190E0232B09F491E082
:1028E000892F08950F931F93CF93DF93EC018B01F2
:1028F0006F5F7F4F8881998100D2009711F480E04B
:1029000005C0998388831B830A8381E0DF91CF917F
:102910001F910F910895CF93DF93EC0188819981E6
:10292000892B29F08A819B818617970758F4CE015D
:10293000D9DF882341F08C819D81892B19F4E881AE
:10294000F981108281E0DF91CF910895EF92FF929B
:102950000F931F93CF93DF93EC017B016C817D81FB
:10296000E114F104B9F04115510591F08A01060F07
:10297000171FB801D0DF882369F0888199812C81E5
:102980003D81820F931FB7010E9445011D830C8377
:1029900081E001C080E0DF91CF911F910F91FF9006
:1029A000EF900895DF93CF930F920F92CDB7DEB7DC
:1029B00069831A82BE016F5F7F4F41E050E0C6DF3E
:1029C0000F900F90CF91DF910895CF93DF93EC019B
:1029D00088819981009709F0F8D0198218821D82A8
:1029E0001C821B821A82DF91CF910895EF92FF9291
:1029F0000F931F93CF93DF93EC017B018A01BA0100
:102A00008ADF882319F4CE01E0DF07C01D830C8321
:102A100088819981B7010E944501CE01DF91CF9154
:102A20001F910F91FF90EF900895CF93DF93EC01EA
:102A3000198218821B821A821D821C8261157105FF
:102A400049F0DB010D900020E9F71197A61BB70BA9
:102A5000AD01CCDFDF91CF9108950F931F93182F15
:102A6000092F6115710551F0DB010D900020E9F788
:102A70001197A61BB70BAD01B9DF01C0A6DF812FEF
:102A8000902F1F910F910895FC01808191819DC02D
:102A90000F931F93CF93DF93BC018230910510F405
:102AA00062E070E0E0911E06F0911F0640E050E009
:102AB000A0E0B0E024C08081918186179707D0F014
:102AC0008617970771F482819381109729F01396E6
:102AD0009C938E9312972CC090931F0680931E0692
:102AE00027C04115510519F08417950718F48D0179
:102AF000AC01EF01DF01828193819C01F9013097E4
:102B0000D1F641155105F9F0CA01861B970B8430A7
:102B1000910580F48A819B810115110521F0F8014E
:102B20009383828304C090931F0680931E06FE0148
:102B3000329645C0FE01E80FF91F61937193029729
:102B4000998388833CC080911C0690911D06892B37
:102B500041F48091E8029091E90290931D068093E0
:102B60001C064091EA025091EB024115510541F4D7
:102B70004DB75EB78091E6029091E702481B590B72
:102B800020911C0630911D0624173507B0F4CA01A8
:102B9000821B930B8617970780F0AB014E5F5F4F48
:102BA0008417950750F0420F531F50931D06409312
:102BB0001C06F9016193719302C0E0E0F0E0CF01DF
:102BC000DF91CF911F910F910895CF93DF939C01D7
:102BD000009709F48FC0EC0122971B821A82609142
:102BE0001E0670911F066115710581F48881998117
:102BF000820F931F20911C0630911D06281739075C
:102C000039F5D0931D06C0931C0674C0DB0140E06B
:102C100050E0AC17BD0708F1BB83AA83FE012191E8
:102C20003191E20FF31FAE17BF0779F48D919C919C
:102C30001197280F391F2E5F3F4F39832883129633
:102C40008D919C9113979B838A834115510571F453
:102C5000D0931F06C0931E064DC012968D919C9175
:102C60001397AD01009711F0DC01D3CFDA01139671
:102C7000DC93CE931297FA0121913191E20FF31F69
:102C8000CE17DF0769F488819981280F391F2E5FDD
:102C90003F4FFA01318320838A819B819383828312
:102CA000E0E0F0E0DB0112968D919C911397009784
:102CB00019F0BC01FD01F6CFAB014E5F5F4FDB01A8
:102CC0008D919C91840F951F20911C0630911D06BB
:102CD0002817390779F4309729F410921F061092BB
:102CE0001E0602C0138212824250504050931D06AD
:102CF00040931C06DF91CF9108956F927F928F923F
:102D00009F92AF92BF92CF92DF92EF92FF920F937A
:102D10001F93CF93DF938C01009721F4CB01B8DE92
:102D20008C01B8C08EEFE82E8FEFF82EE00EF11E6A
:102D30004801860E971E8E149F0408F4A9C0D7017F
:102D40004D915C91119746175707B0F045305105EA
:102D500008F4A0C0CA0104978617970708F49AC020
:102D600042505040461B570BF401419351936D93D1
:102D70007C93CF012ADF8EC05B01A41AB50A38010B
:102D8000640E751EA0911E06B0911F06E0E0F0E0F3
:102D9000CC24DD2447C0A615B705A9F5CD91DC915B
:102DA0001197CE0102968A159B0568F1CE018A190A
:102DB0009B09029612962C91129713963C910597B7
:102DC00058F0F40122833383CA19DB09D183C0830D
:102DD000D7016D937C9309C04E5F5F4F4C0F5D1F11
:102DE000F70151834083C901FC01C114D10431F0C2
:102DF000D6011396FC93EE9312974CC0F0931F06E6
:102E0000E0931E0647C08D919C911197E817F90732
:102E100008F4FC016D0112968C91129713969C9107
:102E20009C01D901109709F0B6CF80911C069091B2
:102E30001D0686159705E9F4E617F707D0F42091EB
:102E4000EA023091EB022115310541F42DB73EB76E
:102E50008091E6029091E702281B390B82169306B7
:102E6000B8F490921D0680921C06F701718360836E
:102E700011C0CB010DDEEC01009751F0D7014D914F
:102E80005C91B8010E943301C8019FDE8E0102C02F
:102E900000E010E0C801DF91CF911F910F91FF90EA
:102EA000EF90DF90CF90BF90AF909F908F907F90EA
:102EB0006F900895629FD001739FF001829FE00D93
:102EC000F11D649FE00DF11D929FF00D839FF00DA9
:102ED000749FF00D659FF00D9927729FB00DE11D55
:102EE000F91F639FB00DE11DF91FBD01CF01112432
:102EF000089597FB092E07260AD077FD04D02ED01F
:102F000006D000201AF4709561957F4F0895F6F76A
:102F1000909581959F4F0895A1E21A2EAA1BBB1B85
:102F2000FD010DC0AA1FBB1FEE1FFF1FA217B30795
:102F3000E407F50720F0A21BB30BE40BF50B661FAB
:102F4000771F881F991F1A9469F76095709580956F
:102F500090959B01AC01BD01CF010895AA1BBB1B3D
:102F600051E107C0AA1FBB1FA617B70710F0A61B89
:102F7000B70B881F991F5A95A9F780959095BC01AA
:102F8000CD010895EE0FFF1F0590F491E02D1994E7
:102F900012E0C8E0D2E003C0FE01F6DF2296CA309C
:082FA000D107D1F7F894FFCF2F
:102FA8000041627269656E646F004C6C656E616E9B
:102FB800646F0043657272616E646F006100620045
:102FC800630064004F4B2E2044617220436F6D698B
:102FD800646120202E004D312E4175746F2D4D32C5
:102FE8002E20436F6E66004D4F444F0054454D50A0
:102FF8004F52495A41444F0044616E646F20436FF9
:103008006D696461004D312E20506F7263696F6E77
:103018002020202020202020004D322E5469656D6C
:10302800706F204F6B2E53616C202020004D312E85
:10303800506571204D322E4D656469004F6B2E47E7
:1030480072616E646500494E475245534F2045589A
:1030580049544F534F21004D312E484F52413A2089
:10306800004D322E4D494E3A20004F4B2E53616C85
:103078003A200020202020004150414741444F0081
:103088000200FFFFFFFF8000200600000000000094
:103098005A0B5613000040001400540000000000B2
:0C30A800D1115613661198117811C11156
:00000001FF
